:020000040800F2
:1000000000800120A13C0008893B00088D3B0008CE
:10001000913B0008953B0008993B00080000000058
:100020000000000000000000000000009D3B0008F0
:10003000A13B000800000000A53B0008A93B000808
:10004000F13C0008F13C0008F13C0008F13C0008DC
:10005000F13C0008F13C0008F13C0008F13C0008CC
:10006000F13C0008F13C0008F13C0008F13C0008BC
:10007000F13C0008F13C0008F13C0008F13C0008AC
:10008000F13C0008F13C0008F13C000800000000D1
:10009000000000000000000000000000F13C00082B
:1000A000F13C0008F13C0008F13C0008F13C00087C
:1000B000F13C0008F13C0008F13C0008F13C00086C
:1000C000F13C0008F13C0008F13C0008F13C00085C
:1000D000F13C0008F13C0008F13C00080000000081
:1000E000AD3B0008F13C0008F13C000800000000B6
:1000F000000000000000000000000000F13C0008CB
:1001000000000000F13C0008F13C0008F13C000850
:1001100000000000000000000000000000000000DF
:10012000B53B0008F13C0008F13C0008F13C000838
:10013000F13C00080000000000000000000000008A
:10014000000000000000000000000000F13C00087A
:10015000F13C0008F13C0008F13C0008F13C0008CB
:10016000F13C0008F13C0008000000000000000025
:10017000000000000000000000000000000000007F
:1001800000000000F13C000800000000000000003A
:04019000F13C000836
:1001A00010B5054C237833B9044B13B10448AFF3B1
:1001B00000800123237010BDE82100200000000012
:1001C0007CAA000808B5034B1BB103490348AFF3F1
:1001D000008008BD00000000EC2100207CAA00087F
:1001E000034613F8012B002AFBD1181A0138704777
:1001F00001F0FF01102A2BDB10F0070F08D010F8D8
:10020000013B013A8B422DD010F0070F42B3F6D1DB
:10021000F0B441EA012141EA014122F007047FF0F4
:1002200000070023F0E80256083C85EA010586EA4B
:10023000010685FA47F5A3FA87F586FA47F6A5FA87
:1002400087F68EB9EED1F0BC01F0FF0102F0070293
:1002500032B110F8013B013A83EA010313B1F8D13E
:100260000020704701387047002D06BF354603381F
:10027000073815F0010F07D1013015F4807F02BF58
:10028000013015F4C03F0130F0BC0138704700BFA9
:1002900081F0004102E000BF83F0004330B54FEA37
:1002A00041044FEA430594EA050F08BF90EA020FA4
:1002B0001FBF54EA000C55EA020C7FEA645C7FEA37
:1002C000655C00F0E2804FEA5454D4EB5555B8BF5A
:1002D0006D420CDD2C4480EA020281EA030382EACB
:1002E000000083EA010180EA020281EA0303362D5D
:1002F00088BF30BD11F0004F4FEA01314FF4801C30
:100300004CEA113102D0404261EB410113F0004F41
:100310004FEA03334CEA133302D0524263EB4303F8
:1003200094EA050F00F0A780A4F10104D5F1200E96
:100330000DDB02FA0EFC22FA05F2801841F10001F1
:1003400003FA0EF2801843FA05F359410EE0A5F1C5
:1003500020050EF1200E012A03FA0EFC28BF4CF0F6
:10036000020C43FA05F3C01851EBE37101F00045AC
:1003700007D54FF0000EDCF1000C7EEB00006EEBB9
:100380000101B1F5801F1BD3B1F5001F0CD3490843
:100390005FEA30004FEA3C0C04F101044FEA44529A
:1003A00012F5800F80F09A80BCF1004F08BF5FEA21
:1003B000500C50F1000041EB045141EA050130BD01
:1003C0005FEA4C0C404141EB0101013C28BFB1F513
:1003D000801FE9D291F0000F04BF01460020B1FA5E
:1003E00081F308BF2033A3F10B03B3F120020CDA31
:1003F0000C3208DD02F1140CC2F10C0201FA0CF00F
:1004000021FA02F10CE002F11402D8BFC2F1200C73
:1004100001FA02F120FA0CFCDCBF41EA0C01904029
:10042000E41AA2BF01EB0451294330BD6FEA040472
:100430001F3C1CDA0C340EDC04F11404C4F120025D
:1004400020FA04F001FA02F340EA030021FA04F36F
:1004500045EA030130BDC4F10C04C4F1200220FAC6
:1004600002F001FA04F340EA0300294630BD21FA04
:1004700004F0294630BD94F0000F83F4801306BFCA
:1004800081F480110134013D4EE77FEA645C18BFBE
:100490007FEA655C29D094EA050F08BF90EA020F55
:1004A00005D054EA000C04BF1946104630BD91EA4D
:1004B000030F1EBF0021002030BD5FEA545C05D150
:1004C0004000494128BF41F0004130BD14F580048F
:1004D0003CBF01F5801130BD01F0004545F0FE4103
:1004E00041F470014FF0000030BD7FEA645C1ABF38
:1004F000194610467FEA655C1CBF0B46024650EA6F
:10050000013406BF52EA033591EA030F41F400219A
:1005100030BD00BF90F0000F04BF0021704730B520
:100520004FF4806404F132044FF000054FF00001F5
:1005300050E700BF90F0000F04BF0021704730B5B6
:100540004FF4806404F1320410F0004548BF40428B
:100550004FF000013EE700BF42004FEAE2014FEAE0
:1005600031014FEA02701FBF12F07F4393F07F4FBB
:1005700081F06051704732F07F4208BF704793F0BE
:100580007F4F04BF41F40021704730B54FF46074D1
:1005900001F0004521F000411CE700BF50EA0102D4
:1005A00008BF704730B54FF000050AE050EA01027D
:1005B00008BF704730B511F0004502D5404261EBED
:1005C00041014FF4806404F132045FEA915C3FF42E
:1005D000D8AE4FF003025FEADC0C18BF03325FEACB
:1005E000DC0C18BF033202EBDC02C2F1200300FA7C
:1005F00003FC20FA02F001FA03FE40EA0E0021FAA1
:1006000002F11444BDE600BF70B54FF0FF0C4CF48E
:10061000E06C1CEA11541DBF1CEA135594EA0C0F40
:1006200095EA0C0F00F0DEF82C4481EA030621EA7B
:100630004C5123EA4C5350EA013518BF52EA0335B6
:1006400041F4801143F4801338D0A0FB02CE4FF068
:100650000005E1FB02E506F00042E0FB03E54FF098
:100660000006E1FB03569CF0000F18BF4EF0010E90
:10067000A4F1FF04B6F5007F64F5407404D25FEA8C
:100680004E0E6D4146EB060642EAC62141EA55513F
:100690004FEAC52040EA5E504FEACE2EB4F1FD0C81
:1006A00088BFBCF5E06F1ED8BEF1004F08BF5FEAFF
:1006B000500E50F1000041EB045170BD06F00046B1
:1006C00046EA010140EA020081EA0301B4EB5C045E
:1006D000C2BFD4EB0C0541EA045170BD41F4801156
:1006E0004FF0000E013C00F3AB8014F1360FDEBF7B
:1006F000002001F0004170BDC4F10004203C35DA57
:100700000C341BDC04F11404C4F1200500FA05F3D9
:1007100020FA04F001FA05F240EA020001F000427A
:1007200021F0004110EBD37021FA04F642EB0601F0
:100730005EEA430E08BF20EAD37070BDC4F10C041A
:10074000C4F1200500FA04F320FA05F001FA04F2DE
:1007500040EA020001F0004110EBD37041F10001CA
:100760005EEA430E08BF20EAD37070BDC4F12005D5
:1007700000FA05F24EEA020E20FA04F301FA05F23D
:1007800043EA020321FA04F001F0004121FA04F2E5
:1007900020EA020000EBD3705EEA430E08BF20EAB5
:1007A000D37070BD94F0000F0FD101F000464000EF
:1007B00041EB010111F4801F08BF013CF7D041EA71
:1007C000060195F0000F18BF704703F00046520075
:1007D00043EB030313F4801F08BF013DF7D043EA46
:1007E0000603704794EA0C0F0CEA135518BF95EAFC
:1007F0000C0F0CD050EA410618BF52EA4306D1D183
:1008000081EA030101F000414FF0000070BD50EAA1
:10081000410606BF1046194652EA430619D094EA2B
:100820000C0F02D150EA013613D195EA0C0F05D115
:1008300052EA03361CBF104619460AD181EA030169
:1008400001F0004141F0FE4141F470014FF0000021
:1008500070BD41F0FE4141F4780170BD70B54FF0BC
:10086000FF0C4CF4E06C1CEA11541DBF1CEA13553C
:1008700094EA0C0F95EA0C0F00F0A7F8A4EB05041E
:1008800081EA030E52EA03354FEA013100F0888015
:100890004FEA03334FF0805545EA131343EA1263DE
:1008A0004FEA022245EA111545EA10654FEA002693
:1008B0000EF000419D4208BF964244F1FD0404F54C
:1008C000407402D25B084FEA3202B61A65EB0305A8
:1008D0005B084FEA32024FF480104FF4002CB6EB65
:1008E000020E75EB030E22BFB61A754640EA0C00E5
:1008F0005B084FEA3202B6EB020E75EB030E22BF25
:10090000B61A754640EA5C005B084FEA3202B6EB65
:10091000020E75EB030E22BFB61A754640EA9C0024
:100920005B084FEA3202B6EB020E75EB030E22BFF4
:10093000B61A754640EADC0055EA060E18D04FEAB2
:10094000051545EA16754FEA06164FEAC30343EA52
:1009500052734FEAC2025FEA1C1CC0D111F4801F1F
:100960000BD141EA00014FF000004FF0004CB6E718
:1009700011F4801F04BF01430020B4F1FD0C88BFB7
:10098000BCF5E06F3FF6AFAEB5EB030C04BFB6EBC2
:10099000020C5FEA500C50F1000041EB045170BDB5
:1009A0000EF0004E4EEA113114EB5C04C2BFD4EBE2
:1009B0000C0541EA045170BD41F480114FF0000E66
:1009C000013C90E645EA060E8DE60CEA135594EAE2
:1009D0000C0F08BF95EA0C0F3FF43BAF94EA0C0FE5
:1009E0000AD150EA01347FF434AF95EA0C0F7FF45A
:1009F00025AF104619462CE795EA0C0F06D152EAAE
:100A000003353FF4FDAE1046194622E750EA410691
:100A100018BF52EA43067FF4C5AE50EA41047FF4A2
:100A20000DAF52EA43057FF4EBAE12E74FF0FF3C07
:100A300006E000BF4FF0010C02E000BF4FF0010CD8
:100A40004DF804CD4FEA410C7FEA6C5C4FEA430C51
:100A500018BF7FEA6C5C1BD001B050EA410C0CBFA0
:100A600052EA430C91EA030F02BF90EA020F002002
:100A7000704710F1000F91EA030F58BF994208BF69
:100A800090422CBFD8176FEAE37040F00100704726
:100A90004FEA410C7FEA6C5C02D150EA013C07D17D
:100AA0004FEA430C7FEA6C5CD6D152EA033CD3D0C8
:100AB0005DF8040B704700BF8446104662468C46C2
:100AC0001946634600E000BF01B5FFF7B7FF0028F5
:100AD00048BF10F1000F01BD4DF808EDFFF7F4FF1E
:100AE0000CBF012000205DF808FB00BF4DF808EDA9
:100AF000FFF7EAFF34BF012000205DF808FB00BFCC
:100B00004DF808EDFFF7E0FF94BF012000205DF8ED
:100B100008FB00BF4DF808EDFFF7CEFF94BF0120A2
:100B200000205DF808FB00BF4DF808EDFFF7C4FF9B
:100B300034BF012000205DF808FB00BF4FEA410CE4
:100B40007FEA6C5C02D150EA013C0AD14FEA430CC7
:100B50007FEA6C5C02D152EA033C02D14FF0000004
:100B600070474FF0010070474FEA410212F5001242
:100B700015D211D56FF47873B3EB625212D94FEAE4
:100B8000C12343F0004343EA505311F0004F23FACE
:100B900002F018BF404270474FF00000704750EA23
:100BA000013005D111F0004008BF6FF000407047E0
:100BB0004FF00000704700BF4FEA4102B2F1E0433E
:100BC00024BFB3F5001CDCF1FE5C0DD901F0004C34
:100BD0004FEAC0024CEA5070B2F1004F40EB830084
:100BE00008BF20F00100704711F0804F21D113F1B0
:100BF0003872BCBF01F00040704741F480114FEAE9
:100C00005252C2F11802C2F1200C10FA0CF320FA71
:100C100002F018BF40F001004FEAC1234FEAD3238E
:100C200003FA0CFC40EA0C0023FA02F34FEA4303F8
:100C3000CCE77FEA625307D150EA01331EBF4FF081
:100C4000FE4040F44000704701F0004040F0FE409C
:100C500040F40000704700BF53B94AB9002908BFEB
:100C600000281CBF4FF0FF314FF0FF3000F06EB98D
:100C7000ADF1080C6DE904CE00F006F8DDF804E0F3
:100C8000DDE9022304B070472DE9F047089D0446D2
:100C90008C46002B40F083808A42174647D9B2FA2F
:100CA00082F242B1C2F1200024FA00F09140974054
:100CB00040EA010C94404FEA1748230CBCFBF8F6BD
:100CC0001FFA87FE08FB16C143EA014306FB0EF13B
:100CD000994209D9FB1806F1FF3080F01981994239
:100CE00040F21681023E3B445B1AA4B2B3FBF8F01B
:100CF00008FB103344EA034400FB0EFEA64509D965
:100D00003C1900F1FF3380F00581A64540F20281D5
:100D100002383C4440EA0640A4EB0E0400261DB114
:100D2000D4400023C5E900433146BDE8F08702B94D
:100D3000FFDEB2FA82F2002A50D1CB1B4FEA174EE7
:100D40001FFA87F80126B3FBFEFC210C0EFB1C33B7
:100D500041EA034108FB0CF38B4207D979180CF1E7
:100D6000FF3002D28B4200F2E9808446C91AA3B256
:100D7000B1FBFEF00EFB101143EA014408FB00F842
:100D8000A04507D93C1900F1FF3302D2A04500F27B
:100D9000D9801846A4EB080440EA0C40BFE78B4218
:100DA00009D9002D00F0B1800026C5E900013046C8
:100DB0003146BDE8F087B3FA83F6002E4AD18B4264
:100DC00002D3824200F2B880841A61EB0301012051
:100DD0008C46002DA8D0C5E9004CA5E7C2F1200340
:100DE00020FA03F6974001FA02F04FEA174ED94075
:100DF0003043030CB1FBFEF61FFA87F80EFB161109
:100E000043EA014306FB08F1994204FA02F409D9C6
:100E1000FB1806F1FF3C80F08D80994240F28A80F9
:100E2000023E3B445B1A81B2B3FBFEF00EFB103373
:100E300041EA034100FB08F38B4207D9791800F11E
:100E4000FF3C73D28B4271D902383944CB1A40EA45
:100E5000064678E7C6F1200C03FA06F422FA0CF3F2
:100E60001C4320FA0CF701FA06F34FEA144E21FA5C
:100E70000CF11F433B0CB1FBFEF91FFA84F80EFB8B
:100E8000191143EA014109FB08FA8A4502FA06F200
:100E900000FA06F308D9611809F1FF3048D28A45F3
:100EA00046D9A9F102092144A1EB0A01BFB2B1FB65
:100EB000FEF00EFB101147EA014700FB08F8B845A9
:100EC00007D9E71900F1FF312ED2B8452CD90238E5
:100ED000274440EA0940A7EB0807A0FB02894F45D9
:100EE000C64649461AD317D05DB1B3EB0E0267EB85
:100EF000010707FA0CFCF2404CEA0202F740C5E990
:100F0000002700263146BDE8F0872E4628460BE72D
:100F10000646E9E61846FDE64345E5D2B8EB020E83
:100F200069EB04010138DFE70846D2E760468DE748
:100F30008146B9E7664675E730464AE7ACF1020CF0
:100F4000394413E702383C4424E700BF704700BF30
:100F500001F0010341F4804230B50446880748BFE0
:100F60000133510744BF0133DBB2150744BF0133DE
:100F7000DBB2D00644BF0133DBB2910644BF01337C
:100F8000DBB2550644BF0133DBB2100644BF013368
:100F9000DBB2D10544BF0133DBB2950544BF013359
:100FA000DBB2500544BF0133DBB2110544BF01334E
:100FB000DBB2D50444BF0133DBB2900444BF01333C
:100FC000DBB2510444BF0133DBB2D10B1CBF013390
:100FD000DBB203F0010383B042EAC3335BBA1D48BE
:100FE000ADF804300022214603F05AFC1A4801A94A
:100FF0004FF6FF730222054603F0FEFF284604F079
:10100000B1FB0128FAD1024621461248124D03F0E5
:1010100047FC10480022214603F042FC01A94FF68C
:10102000FF730222284604F091FA284604F09AFB46
:101030000128FAD102462146064803F031FC9DF80A
:1010400004309DF8050040EA0320C0F30D0003B012
:1010500030BD00BF00040240CC750020000000003D
:1010600010B5044601220188254803F019FC43F617
:10107000FF712088FFF76CFF07EE900A9FED216A51
:10108000DFED216AB8EE677ADFED207AE7EE067AC7
:10109000B0EE007AE7EE876A16EE900AFFF75CFA88
:1010A0009FED151B41EC100B08F0E4F851EC100B10
:1010B000FFF782FD07EE900AF5EEC07AF1EE10FA26
:1010C00044BF9FED137A77EE877A9FED0F7A77EE24
:1010D000C77A17EE900AC4ED607AFFF73DFA9FEDEC
:1010E000061B41EC100B08F0C5F851EC100BFFF794
:1010F00063FDC4F87C0110BD00000060FB211940B5
:1011000000040240DB0FC939DB0F4940DB0F49C047
:10111000DB0FC9400000000010B543F6FF71044624
:101120000088FFF715FF07EE900A9FED196ADFEDC3
:10113000196AB8EE677ADFED187AE7EE067AB0EE54
:10114000007AE7EE876A16EE900AFFF705FA9FED40
:101150000E1B41EC100B08F08DF851EC100BFFF753
:101160002BFD07EE900AF5EEC07AF1EE10FA44BFBF
:101170009FED0A7A77EE877A9FED067A77EEC77A47
:10118000C4ED607A10BD00BF00000060FB21194073
:10119000DB0FC939DB0F4940DB0F49C0DB0FC9400A
:1011A00038B504462DED028B02F070FDD4F88C3179
:1011B0009FED398AD4ED608AC31A07EE903AF8EEB3
:1011C000677A054627EE888AB5EEC08AF1EE10FAF6
:1011D0002ED99FED327AF4EEC77AF1EE10FA27DCC1
:1011E000DFED2F7A94ED617A78EEA77A77EEC77A01
:1011F00017EE900AFFF7B0F99FED231B41EC100B9F
:1012000008F038F822A3D3E9002351EC100BFFF7C4
:1012100043F8FFF7D1FC07EE900AC7EE887AC4F8CE
:101220008C51C4ED618ABDEC028BC4ED647A38BD8B
:10123000DFED1B7A94ED617A78EEA77A77EEC77AC4
:1012400017EE900AFFF788F99FED0F1B41EC100B8A
:1012500008F010F80EA3D3E9002351EC100BFFF7B0
:101260001BF8FFF7A9FCC4ED618ABDEC028BDFED32
:101270000D7AC4F88C5107EE100A67EE277AC4ED98
:10128000647A38BDAFF3008000000060FB21194094
:1012900000000060FB210940BD3786350024F4487A
:1012A000DB0F4940FFFF794470B5012282B011463F
:1012B00000246A4803F0F4FA802368488DF8073068
:1012C000224601218DF805408DF8064003F0E8FA2A
:1012D0000DF107014FF6FF730122614803F08CFE08
:1012E0004FF6FF7301220DF105015D4804F02EF960
:1012F0004FF6FF730DF106010122594804F026F95B
:1013000001225648114603F0CBFA9DF80630242BF3
:101310000AD05448FEF764FF524982B2C8235248AB
:1013200004F0A2FF02B070BD504A51494D4805F08B
:10133000E5FC4C48FEF754FF4A4982B2C8234A48AC
:1013400004F092FF7C2345488DF8073022460121A6
:101350008DF8064003F0A4FA4FF6FF7301220DF159
:1013600007013F4803F048FE4FF6FF7301220DF1DD
:1013700006013B4803F040FE01221146374803F0C6
:101380008FFA012002F006FD592334488DF807300A
:10139000224601218DF8064003F082FA4FF6FF73D2
:1013A00001220DF107012E4803F026FE4FF6FF73D0
:1013B00001220DF106012A4803F01EFE012211460A
:1013C000264803F06DFA2B4B24481D8822465E23E5
:1013D00001218DF8073003F063FA21484FF6FF73BF
:1013E00001220DF1070103F007FE7DB1224C1C4ED6
:1013F000013D631C13FA85F5012221464FF6FF7368
:101400001444304603F0F8FDA542F5D101221446FC
:101410001146124803F044FA214659230F488DF82B
:10142000073000228DF8064003F03AFA0DF107016B
:1014300022464FF6FF730A4803F0DEFD0DF1060168
:1014400022464FF6FF73064803F0D6FD03482246B6
:10145000214603F025FA02B070BD00BF000402402F
:10146000CC7500209C3200206C76002098AA0008E1
:10147000A8AA0008002000200000002070B5384D08
:10148000384C0FCD0FC40FCD0FC495E8070003C42F
:1014900024F8022B2146120C82B001F82A29C82315
:1014A0002A22314804F0E0FE962002F073FC00226C
:1014B000A1232E488DF8052001218DF806208DF8F6
:1014C000073003F0EDF94FF6FF7301220DF107012C
:1014D000274803F091FD4FF6FF7301220DF105013E
:1014E000234804F033F84FF6FF7301220DF1060193
:1014F0001F4804F02BF801221C48114603F0D0F9D4
:101500009DF8063003F00F0343F44043A3F5404336
:10151000072B06D8DFE803F0151721041F1D1B1940
:10152000144E15490F48324605F0E8FB0D48FEF70A
:1015300057FE0C4982B2C8230B4804F095FE02B056
:1015400070BD0E4EEDE70E4EEBE70E4EE9E70E4E88
:10155000E7E70E4EE5E70E4EE3E70E4EE1E700BF8C
:10156000C0AB00089C3200206C76002000040240D2
:10157000CC750020D8AA0008A8AA0008A0AB0008D3
:1015800018AB000838AB00085CAB000880AB000863
:10159000B8AA0008F8AA000830B5044683B030B1F4
:1015A000012800F0C980022863D003B030BD7D233C
:1015B0000246042594488DF8065001218DF8073025
:1015C00003F06EF90DF107014FF6FF7301228F480A
:1015D00003F012FD4FF6FF730DF1060101228B4857
:1015E00003F00AFD01221146874803F059F9172537
:1015F0004023224684488DF8073001218DF806509B
:1016000003F04EF90DF107014FF6FF7301227F48F9
:1016100003F0F2FC4FF6FF730DF1060101227B4847
:1016200003F0EAFC01221146774803F039F922461B
:101630007C23032474488DF8064001218DF807307F
:1016400003F02EF90DF107014FF6FF7301226F48E9
:1016500003F0D2FC0DF106014FF6FF7301226B4837
:1016600003F0CAFC01226848114603F019F903B0DF
:1016700030BD7D2364488DF807300E2500220121FE
:101680008DF8065003F00CF90DF107014FF6FF73CA
:1016900001225E4803F0B0FC4FF6FF730DF1060126
:1016A00001225A4803F0A8FC01221146564803F0D3
:1016B000F7F8A825402354488DF806500022012150
:1016C0008DF8073003F0ECF80DF107014FF6FF73CA
:1016D00001224E4803F090FC4FF6FF730DF1060116
:1016E00001224A4803F088FC01221146464803F0D3
:1016F000D7F8E925422344488DF80730002201211C
:101700008DF8065003F0CCF80DF107014FF6FF738A
:1017100001223E4803F070FC4FF6FF730DF1060105
:1017200001223A4803F068FC01221146364803F0D2
:10173000B7F87C2300227DE77D2301460E25324841
:101740008DF8065000228DF8073003F0A9F80DF14E
:1017500007014FF6FF7322462C4803F04DFC4FF66D
:10176000FF730DF106012246284803F045FC264888
:101770002246214603F094F8A825402322488DF8FC
:101780000650002221468DF8073003F089F80DF14C
:1017900007014FF6FF7322461C4803F02DFC4FF65D
:1017A000FF730DF106012246184803F025FC164888
:1017B0002246214603F074F8A925422312488DF8E9
:1017C0000650002221468DF8073003F069F80DF12C
:1017D00007014FF6FF7322460C4803F00DFC4FF64D
:1017E000FF730DF106012246084803F005FC0225AF
:1017F00005482246214603F053F803488DF8065069
:101800007C230022214619E700040240CC75002009
:10181000F0B500F10904314F314D640083B000266A
:10182000E4B264F07F033846324601218DF8073078
:101830008DF805608DF8066003F032F80DF10701B0
:1018400028464FF6FF73012203F0D6FB0DF1050188
:1018500028464FF6FF73012203F078FE4FF6FF7320
:101860000DF106012846012203F070FE01223846E0
:101870001146013403F014F864F07F043246384610
:1018800001218DF807408DF805609DF806408DF820
:10189000066003F005F80DF1070128464FF6FF73C7
:1018A000012203F0A9FB0DF1050128464FF6FF7355
:1018B000012203F04BFE0DF106014FF6FF7328469F
:1018C000012203F043FE01223846114602F0E8FFF0
:1018D0009DF8060044EA002003B0F0BD0004024079
:1018E000CC750020F0B5841D314F324D640083B0BB
:1018F0000026E4B264F07F033846324601218DF8B9
:1019000007308DF805608DF8066002F0C9FF0DF113
:10191000070128464FF6FF73012203F06DFB0DF11E
:10192000050128464FF6FF73012203F00FFE4FF624
:10193000FF730DF106012846012203F007FE012284
:1019400038461146013402F0ABFF64F07F043246A2
:10195000384601218DF807408DF805609DF8064056
:101960008DF8066002F09CFF0DF1070128464FF646
:10197000FF73012203F040FB0DF1050128464FF6ED
:10198000FF73012203F0E2FD0DF106014FF6FF7334
:101990002846012203F0DAFD01223846114602F002
:1019A0007FFF9DF8060044EA002003B0F0BD00BFB1
:1019B00000040240CC75002070B5124C124D84B06A
:1019C0000B4606460022204601218DF807308DF88F
:1019D0000F6002F065FF0DF10F0128464FF6FF730F
:1019E000012203F009FB4FF6FF730DF107012846B2
:1019F000012203F001FB01222046114602F050FFB4
:101A000004B070BD00040240CC750020F0B5224F38
:101A1000224E83B00024054622463846C2230121C7
:101A20008DF807308DF805408DF8064002F038FF3C
:101A30000DF1070130464FF6FF73012203F0DCFA87
:101A40000DF1050130464FF6FF73012203F07EFDD4
:101A50004FF6FF730DF106013046012203F076FDCB
:101A600001221146384602F01BFF9DF8063022463F
:101A700003F00F0161F3070203F0300161F30F225D
:101A800003F0400161F3174223F07F0363F31F6209
:101A9000C5F86A2003B0F0BD00040240CC750020F8
:101AA000F0B5434C434D90F86A3083B00646422768
:101AB0002046002201218DF806308DF8077002F0D3
:101AC000EFFE0DF1070128464FF6FF73012203F0E8
:101AD00093FA0DF106014FF6FF732846012203F039
:101AE0008BFA01222046114602F0DAFE96F86B309E
:101AF0008DF806302046002201218DF8077002F093
:101B0000CFFE0DF1070128464FF6FF73012203F0C7
:101B100073FA0DF106014FF6FF732846012203F018
:101B20006BFA01222046114602F0BAFE96F86C309C
:101B30008DF806302046002201218DF8077002F052
:101B4000AFFE0DF1070128464FF6FF73012203F0A7
:101B500053FA0DF106014FF6FF732846012203F0F8
:101B60004BFA01222046114602F09AFE96F86D309B
:101B70008DF806302046002201218DF8077002F012
:101B80008FFE0DF1070128464FF6FF73012203F087
:101B900033FA0DF106014FF6FF732846012203F0D8
:101BA0002BFA01222046114602F07AFE03B0F0BD66
:101BB00000040240CC75002070B51E4E1E4D82B050
:101BC000044600223046C02301218DF805208DF8FF
:101BD00006208DF8073002F063FE0DF1070128465C
:101BE0004FF6FF73012203F007FA0DF105012846B5
:101BF0004FF6FF73012203F0A9FC4FF6FF730DF1BE
:101C000006012846012203F0A1FC012211463046BC
:101C100002F046FE9DF8063003F00F0103F070025B
:101C200023F07F0384F86E1084F86F2084F87030FE
:101C300002B070BD00040240CC750020F0B5334CFA
:101C4000334D90F86E3083B0064640272046002280
:101C500001218DF806308DF8077002F021FE0DF19C
:101C6000070128464FF6FF73012203F0C5F90DF175
:101C700006014FF6FF732846012203F0BDF9012249
:101C80002046114602F00CFE96F86F308DF80630B3
:101C90002046002201218DF8077002F001FE0DF1AF
:101CA000070128464FF6FF73012203F0A5F90DF155
:101CB00006014FF6FF732846012203F09DF9012229
:101CC0002046114602F0ECFD96F870308DF8063093
:101CD0002046002201218DF8077002F0E1FD0DF190
:101CE000070128464FF6FF73012203F085F90DF135
:101CF00006014FF6FF732846012203F07DF9012209
:101D00002046114602F0CCFD03B0F0BD00040240B5
:101D1000CC75002010B582B00022C32301210446F7
:101D20002E488DF805208DF806208DF8073002F03A
:101D3000B7FD4FF6FF7301220DF10701284803F0AC
:101D40005BF94FF6FF7301220DF10501244803F002
:101D5000FDFB4FF6FF7301220DF10601204803F051
:101D6000F5FB01221D48114602F09AFD9DF8063050
:101D7000042B2CD8DFE803F00B131B230300194BB3
:101D8000DFED197A2360C4ED027A02B010BD174B63
:101D9000DFED177A2360C4ED027A02B010BD154B57
:101DA000DFED157A2360C4ED027A02B010BD134B4B
:101DB000DFED137A2360C4ED027A02B010BD114B3F
:101DC000DFED117A2360C4ED027A02B010BD94ED0C
:101DD000007AF7EE006AC6EE877AD4E70004024084
:101DE000CC7500206F128343FFFF793B6F12834154
:101DF000FFFF793D6F120342FFFFF93C6F128342F0
:101E0000FFFF793C6F120343FFFFF93B10B582B02F
:101E10000022C123012104462C488DF805208DF8AD
:101E200006208DF8073002F03BFD4FF6FF730122CC
:101E30000DF10701264803F0DFF84FF6FF7301228A
:101E40000DF10501224803F081FB4FF6FF730122DB
:101E50000DF106011E4803F079FB01221B481146D3
:101E600002F01EFD9DF80630032B27D8DFE803F0B3
:101E70000B141D024FF08A43DFED167A6360C4ED48
:101E8000037A02B010BDDFED147A4FF08D4363602A
:101E9000C4ED037A02B010BDDFED107A4FF08C4331
:101EA0006360C4ED037A02B010BDDFED0D7A4FF030
:101EB0008B436360C4ED037A02B010BD94ED017AE8
:101EC000F7EE006AC6EE877AD9E700BF0004024049
:101ED000CC7500200000003A000080380000003976
:101EE000000080390023A0F8683080ED100A80EDF2
:101EF000110A80ED120A80ED130A80ED140A80EDBC
:101F0000150A704770B504464A480E4601224FF440
:101F10000051054602F0C4FC6188284602F0BAFC74
:101F20000028F9D000214FF480620823A180A4F892
:101F3000682184F86A3104F13000C4F8646101F06A
:101F400085FB04F1640001F081FB04F1980001F0CD
:101F50007DFB04F1CC0001F079FB04F5807001F009
:101F600075FB354A354BC4F8A420C4F8A830344D6D
:101F700034483549354AC4F8D8500023344DC4F8A4
:101F8000DC00C4F80C113348C4F810214FF07F5125
:101F90004FF07E526363A363A366E366C4F89C308C
:101FA000C4F8A030C4F8D030C4F8D430C4F8043138
:101FB000C4F80831E362284BC4F80031C4F8982013
:101FC000C4F8CC2021636166206460679FED230A1A
:101FD000E56304F59A70256700F090FB04F5A070A6
:101FE0009FED1E0A00F08AFB04F5A6709FED1C0A07
:101FF00000F084FB9FED190A04F5AC7000F07EFB45
:1020000094F86811D4F8640103F02CFD94F8691178
:10201000D4F8640103F026FD94F86A11D4F8640141
:1020200003F020FDD4F86431DB680133A4F86C318F
:10203000012070BD00040240A89711C0A89711406C
:10204000666651C266665142000048C200004842BE
:10205000000040C100004041000020410AD7233D5C
:102060000AD7233CB0F86C3107EE903AF8EEE77AE5
:1020700027EE800A67EEA00A27EE811ABCEEC00A9E
:10208000FCEEE00ABCEEC11A81ED0D0AC1ED0E0AAC
:1020900081ED0F1A704700BF10B504462DED028B7D
:1020A00000F5AC70B0EE408A90ED0A0A00F030FB0B
:1020B000D4ED600AB0EE480A04F1CC0001F0DAFA7F
:1020C00004F5A67084ED650A94ED640A00F020FB27
:1020D000F0EE400AC4ED640A04F1980094ED650A3C
:1020E00001F0C8FA04F59A70B0EE408A94ED040A43
:1020F00000F00EFB04F5A07084ED040A94ED050ACF
:1021000000F006FBD4ED040A84ED050A04F130006A
:102110009FED090A01F0AEFAD4ED050A84ED080A34
:1021200004F16400B0EE480A01F0A4FABDEC028BA1
:1021300084ED070A10BD00BF000000000000000091
:1021400060EEA07AF0B5E0EE007AAB4B054617EEF4
:10215000902AA3EB620007EE100A2DED068B67EEC6
:10216000877A83B017EE900AB0EE608AF0EE408A6C
:10217000FEF7F2F99CA3D3E90023FEF745FAFEF738
:102180001BFDF0EE680AB0EE480A09EE100A95ED64
:10219000628A9FED9AAA00F04FFA78EE007AB7EEC5
:1021A000008A17EE900AFEF7D7F99FED911B41ECDC
:1021B000100B07F05FF851EC100BFEF7FDFC08EE7A
:1021C000900AF5EEC08AF1EE10FA44BFDFED8C7A8A
:1021D00078EEA78ADFED8B7AB0EE487AA8EEA77A80
:1021E000B0EE680AFCEEC77ACDED007A9DF80040AB
:1021F00007EE904AF8EEE77A013C97EE8A0A00F083
:10220000F3F907EE904AF8EEE77A60EE099AB0EE3D
:10221000680AA7EECA0A00F0E7F920EE099A79EEFB
:10222000898A38EE688A052C00F2D780DFE804F04E
:102230003A637B9BBB0318EE100AFEF78DF9724BD5
:102240000022FEF7E1F906460F4618EE900AFEF767
:1022500083F93B463246FEF721F8FEF7ADFC034614
:1022600019EE900AF6EE000A68EE200A0193CDED11
:10227000000AFEF771F932463B46FEF70FF8FEF70B
:102280009BFCDDED000A9DED010A01EE100AD5F878
:1022900064311968284603B0BDEC068BBDE8F040F8
:1022A000FFF7E0BE18EE100AFEF756F9564B002273
:1022B000FEF7AAF906460F4618EE900AFEF74CF90B
:1022C0003B463246FDF7EAFFFEF776FC034619EE81
:1022D000100A0093FEF740F932463B46FDF7DEFF59
:1022E000FEF76AFCB6EE001A00EE900A28EE011A1C
:1022F0009DED000ACBE718EE100AFEF72DF9424BD0
:102300000022FEF781F906460F4619EE900AFEF705
:1023100023F93B463246FDF7C1FFFEF74DFC03466D
:1023200018EE900AD5E7B6EE000A28EE000A18EE7D
:10233000100A8DED010AFEF70FF9334B0022FEF76C
:1023400063F906460F4618EE900AFEF705F93B467C
:102350003246FDF7A3FFFEF72FFC034600EE903A4E
:1023600019EE100A83E7B6EE000A28EE000A18EE0E
:10237000100A8DED010AFEF7EFF8234B0022FEF75D
:1023800043F906460F4619EE900AFEF7E5F83B467C
:102390003246FDF783FFFEF70FFC034600EE903A4E
:1023A00018EE900A63E718EE100AFEF7D5F8164B00
:1023B0000022FEF729F906460F4619EE100AFEF72D
:1023C000CBF83B463246FDF769FFFEF7F5FBF6EE2C
:1023D000000A034618EE900A46E79FED0C1AF0EE4D
:1023E000410AB0EE410A52E78E5BF0C6A679C23FC1
:1023F00000000060FB211940865A375F920A863F31
:10240000DB0FC9404576743F0000E03F000000004C
:1024100070B583882DED048B04461BB3464D474EA3
:10242000D6ED006AD4ED070A95ED006A94ED080A2E
:10243000E18866EEA07A26EE607ABDEC048BE0EED1
:10244000067A0133B3FBF1F2A0EE267A01FB1233D8
:10245000A380C4ED0A7A84ED097A2046BDE8704075
:10246000FFF76EBEB0EE408AFEF756FEB4F8983124
:10247000D4ED606A9FED327A2F4D304E07EE903AE0
:10248000F8EEE77AA7EEA67A17EE100AFEF764F8E0
:102490009FED251B41EC100B06F0ECFE51EC100BF0
:1024A000FEF78AFB94ED029A94ED037AC4F8880152
:1024B000F0EE007AF0EE496AE7EE276A08EE900A3D
:1024C00016EE900AFEF748F819A3D3E90023FEF7A9
:1024D0009BF8FEF771FBB0EE680A08EE900A00F078
:1024E00083F8F0EE407A94ED620AC5ED007A00F0D0
:1024F00053F8D5ED007A86ED000A28EEA77A67EE4C
:10250000C97AA9EE007A2046E8EE807A84ED047A52
:10251000C4ED057AFEF744FEB0EE480A2046FFF708
:10252000BBFDA3887CE700BF00000060FB211940D1
:10253000C8BE1A56A779E23F24220020202200209C
:10254000DB0F49C00000000010B50024B4F5806F17
:1025500019DA2046FDF7EEFF0DA3D3E90023FEF7BD
:1025600053F80022084BFEF74FF841EC100B06F031
:10257000F3FD51EC100BFEF71FFB044B03EB840340
:1025800018600134E2E710BD0000603F28220020FF
:1025900000000060FB210940DFED107A20EE270AE1
:1025A0009FED0F7AC0EE077AFDEEE77A17EE903ACC
:1025B000002B09DB03F58073C3F30903094A02EB1F
:1025C000830393ED000A7047C3F58073C3F30903D7
:1025D000044A02EB830393ED000A704700000044B5
:1025E000DB0F494028220020DFED107A20EE270A79
:1025F0009FED0F7AC0EE077AFDEEE77A17EE903A7C
:10260000002B07DBC3F309030A4A02EB830393EDB4
:10261000000A70475B42C3F30903C3F58063054AB0
:1026200002EB830393ED000A704700BF00000044F3
:10263000DB0F494028220020F5EE400AF1EE10FAA7
:102640003FD0F0EEE07AB0EEC07AF4EEC77AF1EE69
:1026500010FA1DDB10EE103A03F00043204A1A4333
:1026600010EE903ADB0F03FB02F380EE207ADFEDF1
:102670001D7A67EE277A67EE877A9FED1B0A77EE61
:10268000807A67EE877A07EE103A37EE870A70474E
:1026900010EE103A03F00042144B1343C0EE807A60
:1026A0009FED100A27EE800A20EE270A9FED0E7A92
:1026B00030EE070A20EE270A07EE903A37EEC00AFE
:1026C0007047B5EEC00AF1EE10FA02DD9FED080A80
:1026D000704702D49FED070A70479FED070A7047C5
:1026E000DB0F4940018E44BED2EE783FDB0FC93F7D
:1026F000DB0FC93F00000000DB0FC9BF10B500238E
:1027000080ED020A4360044601F0C0FA206010BD6B
:1027100010B504462DED028BB0EE408A01F0B6FAFA
:1027200023689FED177AC31A07EE903AF8EE677A9E
:10273000F4EEC77AF1EE10FA19DC94ED027A9FED0F
:10274000116AD4ED016A2060F0EE475AE7EE865A2E
:10275000B7EE000AC7EE257A30EE670A20EE080AC7
:10276000BDEC028BA6EEA70A84ED010A10BDB0EE07
:10277000480ABDEC028B206084ED010A10BD00BF49
:10278000007C9248BD37863510B4C84AC84BC9484A
:10279000C94C92ED004A2DED108BD3ED008A90EDDF
:1027A000006AD4ED003AD3ED004AD0ED006A94ED12
:1027B000008A92ED007A90ED005AD4ED005AD2EDE5
:1027C000007A26EE016A21EE477A60EEE66A67EE4D
:1027D000A07AE3EE806AE5EE817AA8EEA06AA8EE20
:1027E000207AD3ED005AA4EE006AE4EE816AA5EEE9
:1027F000007AE5EEC07AF5EE401AF6EE004AF1EE08
:1028000010FA66EE643A26EEA41A27EE244A67EE22
:10281000A44A05D1B5EE402AF1EE10FA00F03F814E
:1028200022EEA27AA549D4ED008AD2ED00AAD3ED1A
:10283000007AD0ED009A94ED00AA92ED00BA93EDE3
:1028400000CAD2ED00BAD3ED00DAD4ED00CAD4ED5F
:10285000006A92ED00EA92ED00DA93ED008A93EDC2
:10286000005A90ED009AD0ED000AA2EE027AB6EE80
:10287000000AA1EEA17AB7EE086A17EE10CAA1EB22
:102880006C0C05EE90CA6CEEA6CA67EE006A25EEE7
:10289000E57AF0EE46EAE7EE26EA28EE055AB0EED3
:1028A0006E7AB1EE008AD2ED00EA65EE875A93EDBA
:1028B000007A2CEE08CA27EE087A25EEE5FA2EEE0D
:1028C0000DDA29EE209AB0EE4CEAF0EE460AEFEE71
:1028D000260A9CEE87EA65EEA05AB0EE4E7A90ED9D
:1028E00000EAD0ED000A60EE880A2EEE08EA60EEFB
:1028F000850A3DEE055AEDEE0E0AB2EE00DA6DEEF7
:102900008DDA2BEE08BAADEE857A6EEE886A61EE4E
:10291000A51A78EEA88AF0EE4BDADCEEA6DAA2EE83
:10292000A59AA1EEA87A7AEEAAAA6BEE8DBAE1EE8C
:10293000EA0AF0EE6D6A25EEC22AEBEE856A77EEC2
:10294000A77AACEE097AE2EE270A79EEA99A61EE4F
:10295000A77A2AEE088AA2EE297AE8EE057AEBEE4B
:10296000096A20EEA05AE2EE2A7AE1EEE96AA7EEC1
:10297000075AE2EE286AA7EEA75AF0EE461AA6EE2C
:10298000A65ADFED4F2A15EE10CAA1EB6C0105EE39
:10299000901A20EE455A25EEA52A67EEA27AE5EEBA
:1029A000021A66EEA26A65EEA15A27EE227A25EE99
:1029B000A52A60EEA22AA5EE026A26EE656AE6EE78
:1029C000273AA6EE261AA6EE074AE6EE224A3B4929
:1029D000D4ED007AE3EE837ABDEC108BC4ED007A7F
:1029E00092ED007AA1EE037AB6EE006A82ED007AEB
:1029F00093ED007AA4EE037AF7EE087A83ED007A7D
:102A000090ED007AA4EE837A80ED007A94ED003A9E
:102A1000D4ED003AD2ED006AD2ED002A93ED004ADF
:102A2000D3ED004A90ED005A90ED007AD4ED005AB3
:102A300066EEA26AE3EE236AE4EE246AE5EE076A34
:102A4000B0EE675A16EE90CAA1EB6C0107EE101AB1
:102A500066EE666A27EE076AA6EE865A27EE057AC4
:102A600027EE076AE6EE867A67EE277A25EEA77AE2
:102A700084ED007A92ED007A27EE277A82ED007AD3
:102A800093ED007A27EE277A83ED007A90ED007AB5
:102A900067EE277AC0ED007A5DF8044B7047F5EEDB
:102AA000402AF1EE10FA92D0BAE600BF08220020C8
:102AB0000C2200201022002004200020DF59375F64
:102AC000CDCCCC3D00B561EEA17A2DED048BE1EECD
:102AD000417A89B0B0EE409AE9EE097A21EE210AF6
:102AE000B0EE618AF0EE609A28EE698AF0EE418AD3
:102AF000A9EE200AE0EEE07AA9EE288AF0EE670A55
:102B000030EE000AFFF798FD78EE087AF1EE408A81
:102B100017EE900AFDF720FD41EC100B06F070FB5C
:102B200051EC100BFEF748F89DED071A00EE900AE5
:102B3000B0EE680A09B0BDEC048B5DF804FB00BF81
:102B400030B5002395B0CDE90B33CDE90933CDE99C
:102B50000333CDE90533234900930D930293086CA9
:102B6000214A40F080500864096C01F080510091C6
:102B700000990193136823F4404343F40043136026
:102B8000136803F4404301930123019A0B9302223B
:102B90000023CDE90E2308225423CDE9102302247B
:102BA00010210222072308A8CDE9122308940C91D2
:102BB00001F088FE08B172B6FEE703462146022501
:102BC0000F24069300224FF4805302A8CDE902455A
:102BD000CDE9042302F092F808B172B6FEE715B011
:102BE00030BD00BF0038024000700040000000000F
:102BF0002DE9F04F2DED028B9FB0002400230094AF
:102C00000194029301F09AF8FFF79AFFCDE9174477
:102C1000CDE91944AE4D049416942B6BAD4843F0A6
:102C200004032B632B6B03F004030493049B0594B0
:102C30002B6B43F080032B632B6B03F08003059316
:102C4000059B06942B6B43F001032B632B6B03F066
:102C500001030693069B07942B6B43F002032B633F
:102C60002B6B03F00203079322460821079B01F018
:102C700017FE994822464FF4047101F011FE97485F
:102C80000122712101F00CFE944822464FF40051BC
:102C900001F006FE4FF400524FF404138E481894CE
:102CA00016A900260227CDE9162301F007FD082208
:102CB0000123884816A9CDE91623CDE9186701F04C
:102CC000FDFC10220123844816A9CDE91867CDE93F
:102CD000162301F0F3FC71220123CDE916237F486E
:102CE0000022032316A9CDE9182301F0E7FC4FF4D5
:102CF000504200237948189416A9CDE9162301F013
:102D0000DDFC4FF400520123744816A9CDE9186781
:102D1000CDE916234FF4007601F0D0FC0127002204
:102D200000236D4816A9CDE91823CDE9166701F0F7
:102D3000C5FC022600234FF4C0526648189616A917
:102D4000CDE9162301F0BAFC22462146282001F0E5
:102D50008DFA282001F0C2FA6148624984604FF47C
:102D6000E1320C23C0E90344C0E90644C0E9001283
:102D7000436103F0D9F908B172B6FEE703902B6BFB
:102D8000594C43F480032B632B6B03F480030646FA
:102D90000246014603933820039B01F067FA38206E
:102DA00001F09CFA514B524A236001274FF48031C5
:102DB00005232046CDE91666CDE91866A66084F89D
:102DC0002060E662E6606160A262E36127612776C7
:102DD00084F83070676100F0EFFF08B172B6FEE76B
:102DE00000220123189016A92046CDE9162301F0F0
:102DF00081F908B172B6FEE70422022316A9204623
:102E0000CDE9162301F076F908B172B6FEE7092282
:102E1000032316A92046CDE9162301F06BF908B16A
:102E200072B6FEE70A22042316A92046CDE916232E
:102E300001F060F908B172B6FEE720460D220523C5
:102E400016A9CDE9162301F055F9044608B172B66A
:102E5000FEE7284D0A9020263246014616A8CDE905
:102E60000B44CDE90F44CDE91144CDE91344089456
:102E70000E940D94099403F0CFFA1F4AAE6040F20D
:102E8000FF332846C5E904446F60AC612A60EB60FB
:102E900002F06CFC08B172B6FEE74FF480530AA949
:102EA00028460A9303F02CF808B172B6FEE72846CC
:102EB00002F05AFD08B172B6FEE7002400250D4865
:102EC00008A9CDE9084503F0CBF8B8B172B6FEE722
:102ED00000380240000002400008024000040240A6
:102EE0006C76002000440040D47400200020014093
:102EF0000100000F847500200000014060260027BB
:102F0000CDE90E67024614900426002799480EA9C1
:102F1000CDE91045CDE9126702F0E2FE08B172B6C4
:102F2000FEE7944804220EA902F0DAFE08B172B658
:102F3000FEE7904808220EA902F0D2FE08B172B650
:102F4000FEE700224FF400531D9016A98948CDE9F1
:102F50001645CDE91845CDE91A2303F0BBF806461E
:102F600008B172B6FEE7834800F054FD8248834AF8
:102F700002604FF482714FF400724160826110214F
:102F80000A22C0E90266C0E90466C0E908668662F2
:102F9000C161C26201F0D0FF08B172B6FEE7784E9F
:102FA0000E904FF080420123CDE90F00CDE90A00D9
:102FB000CDE91600CDE91800CDE91A0011901C905A
:102FC0003061B06132607360202240F2FF333046DE
:102FD000B260F36002F0CAFB08B172B6FEE74FF4CC
:102FE00080530EA930460E9302F08AFF08B172B6E4
:102FF000FEE7304602F0B8FC08B172B6FEE7304694
:103000000AA9CDE90A4503F02BF808B172B6FEE72C
:103010000022602600274FF004085948189216A98C
:10302000CDE91667CDF8688002F05AFE08B172B695
:10303000FEE75348424616A902F052FE08B172B6A6
:10304000FEE74F48082216A902F04AFE044608B1DE
:1030500072B6FEE74B4D4A4800F0DCFC4A4A2A6053
:10306000012320226B60284640F2FF33CDE90E4455
:10307000CDE91044CDE90A44CDE91644CDE9184420
:10308000CDE91A441C942C61AC61AA60EB6002F09B
:103090006DFB08B172B6FEE74FF480530EA92846C7
:1030A0000E9302F02DFF08B172B6FEE7284602F03B
:1030B0005BFC08B172B6FEE7002200230AA928468D
:1030C000CDE90A2302F0CCFF024608B172B6FEE752
:1030D00016A92846CDE916671892CDF8688002F047
:1030E000FFFD08B172B6FEE7424616A9284602F077
:1030F000F7FD08B172B6FEE72846082216A902F0CD
:10310000EFFD08B172B6FEE7204C1E4800F082FCCD
:103110001F4B204A23605423636020460023C4E9E8
:103120000232CDE90E33CDE91633CDE91833CDE9BE
:103130001A331C932361A36102F096FB08B172B6A7
:10314000FEE70EA9002600272046CDE90E6702F013
:1031500087FF034608B172B6FEE716A920460C2287
:10316000CDE9166718931A9302F0E4FC814698B1F2
:1031700072B6FEE784750020CC7500200030014057
:103180002476002080740020000400403874002061
:10319000000C00403F420F00DD4EDE4DDE4C9FED47
:1031A000DF8ADF4FDFF8D0830FCE0FC596E80F0020
:1031B00085E80F00A5F110014FF0FF331F22D94819
:1031C000D94E03F051F8D949D94ACB6843F08073FE
:1031D000CB60136843F001031360FEF765F8FEF758
:1031E0004DF90220FEF7D8F949464320FEF7E4FBEB
:1031F00003214120FEF7E0FB2046FEF78BFD204631
:10320000FEF704FEB0EE480A2046FEF76BFE0D23E3
:10321000C4F86A302046FEF743FC2046FEF7F6FB72
:1032200040F20C73A4F86E30204684F87090FEF7DC
:1032300005FD2046FEF7C0FCBE4ABF4BBF483A60C2
:103240004FF4C801336061662066384684ED0D8A0C
:1032500084ED0E8AFDF704FF3046FDF701FFFFF70E
:1032600073F9B7493846FEF74DFEB6493046FEF7CA
:1032700049FE04200B23F880F080B349B348A7F837
:1032800098310522A6F8983100F044FE98F80030F5
:10329000002BFBD0AC4DDFEDAE5A9FEDAE3ADFF820
:1032A000DC92DFF8DCA2002288F800202B899BB298
:1032B00007EE903AF8EEE77A934667EEA57ACDED01
:1032C000027A28889DED026A6988DDED026AAA8883
:1032D0009DED027AEB88DDED027A80B205EE100AF0
:1032E00089B2F8EEC53A05EE101A92B2B8EEC54AA8
:1032F00005EE102A9BB2F8EEC54A05EE103AB8EE7C
:10330000C55A93EEA56AD4EE256A94EEA57AD5EE59
:10331000257A26EE036A66EE836A27EE037A67EE65
:10332000837A87ED026AC7ED036A86ED027AC6EDFD
:10333000037A002000F02EFD00F026FD4FF48051AE
:10334000034685480A9301F0A5FA002800F05E8143
:10335000824A62630023A36301221021484601F0E0
:103360009FFA00221021484601F09AFA0020FEF749
:103370004FFA00B207EE900A94ED027AF8EEE77A7F
:10338000012067EE877AC4ED047AFEF741FA00B2B5
:1033900007EE900A94ED027AF8EEE77A022067EEE3
:1033A000877AC4ED057AFEF733FA00B207EE900A89
:1033B00094ED027AF8EEE77A002067EE877AC4EDA2
:1033C000067AFEF78FFA00B207EE900A94ED037AC0
:1033D000F8EEE77A012067EE877AC4ED077AFEF708
:1033E00081FA00B207EE900A94ED037AF8EEE77ADC
:1033F000022067EE877AC4ED087AFEF773FA00B20E
:1034000007EE900AB8EEE78AD4ED037A28EE278A11
:1034100018EE900A84ED098AFDF79EF83AA3D3E9E5
:103420000023FDF7F1F8FDF7C7FBDFED4D7A94EDD2
:10343000061AD4ED050A94ED040A94ED082AD4ED99
:10344000071A03EE100A21EE271A60EEA70A20EEF3
:10345000270AF0EE482AFFF797F9424B93ED000A4E
:10346000414BD3ED000A414B93ED001A404BD3ED95
:10347000001AFFF727FB5046CDED170A8DED181AFD
:103480008DED160AFFF744F95046F0EE407A9DEDB7
:10349000170AC4ED0A7AFFF73BF984ED0B0A98F896
:1034A0000030002BFBD088F800B02B899FED288AD4
:1034B000DFED288AD4ED0A0A94ED0D0A2D489BB25F
:1034C00007EE903AF8EEE77A67EE887ACDED027A69
:1034D0002A889DED027A6B88DDED027A92B206EEC3
:1034E000902A9BB2B8EEE66A06EE903AF8EEE66AEB
:1034F00096EE087AD6EE887A27EE287A67EEA87AD2
:1035000040E000BFAFF30080FCA9F1D24D62503F14
:10351000ECAB00089C3200202832002000000000A4
:10352000B07600206C7600209C720020F0ED00E068
:10353000001000E01000004020000080CDCCCC3D09
:103540008475002024760020C8740020D4740020E4
:103550003333533A768C623E00000240DB0F49BFA2
:1035600035FA8E3C04200020082200200C22002086
:1035700010220020B0770020042200200008024022
:103580008032002087ED027AC7ED037A00F072F8EE
:10359000244B254883ED000AFEF73AFFAA889DEDEB
:1035A000027AEB88DDED027AD4ED0B0A94ED0E0A77
:1035B0001E4892B206EE902A9BB2B8EEE66A06EE7C
:1035C000903AF8EEE66A96EE087AD6EE887A27EE1A
:1035D000287A67EEA87A86ED027AC6ED037A00F0C3
:1035E00049F8134B134883ED000AFEF711FF00F072
:1035F000CBFB0A9BC01A0E90DDED0E8A0022102133
:103600004846F8EE688A01F04BF992E60A484FF412
:10361000006101F03FF900283FF49EAE0023636390
:10362000A36399E620750020B07600209C730020EB
:103630001C7500209C72002000000240014B0122FA
:103640001A7070470422002072B6FEE710B50023FE
:10365000074AC261036243628362C3620363036019
:1036600043608360044600F019FB606110BD00BF39
:103670006F12833A10B504462DED028BB0EE408AEE
:10368000F0EE608A00F00AFB63699FED497AC31A85
:1036900007EE903AF8EE677A67EE875AF5EEC05A71
:1036A000F1EE10FA40F28180DFED426AF4EE667AC4
:1036B000F1EE10FAC8BFF0EE475A38EE687AD4ED52
:1036C000096A94ED015AD4ED007A94ED086A94EDFC
:1036D000044A94ED030AF6EE004A25EE245A77EEEA
:1036E000266A67EE277A66EE856AB4EEE74AA5EEAB
:1036F000A66AF1EE10FAB4EEE70AF0EE466ACCBF25
:1037000034EE676A9FED2C6AF1EE10FA4CBF30EE92
:10371000675A9FED295AF4EEC56AF1EE10FA08DBFC
:10372000F4EEC66AF1EE10FA8CBFB0EE465AB0EE77
:10373000665A94ED066A94ED073AD4ED0A2AD4ED60
:103740000B4AD4ED025A84ED085AF0EE003AF0EE3E
:10375000466AD3EE236A75EEA55A78EEE44A66EE21
:10376000A26AA3EE236AE4EEA56AC6EE865A75EE57
:10377000A77AC4ED0A5A77EE857AB4EEE70AF1EE3D
:1037800010FA08DCB4EEE74AF1EE10FA8CBFB0EEA6
:10379000670AB0EE440AC4ED0B8ABDEC028B84EDDF
:1037A0000C0A84ED097A606110BDF0EE475A84E797
:1037B0006F12833AFFFFF9430000000082B00D4B07
:1037C000002100915A6C42F480425A645A6C02F40F
:1037D00080420092009A01911A6C42F080521A6461
:1037E0001B6C03F080530193019B072002B000F093
:1037F00029BD00BF0038024070B50268384B8AB05E
:1038000000249A42CDE90444CDE90644089401D04D
:103810000AB070BD03F58C3300945A6C314E42F4FB
:1038200080725A645A6C02F480720092009A019479
:103830001A6B42F004021A631A6B02F0040201923E
:10384000019A02941A6B42F001021A631A6B02F099
:1038500001020292029A03941A6B42F002021A6366
:103860001B6B069403F0020303930F2203230399B7
:10387000054604A91C48CDE9042300F01FFF1122CE
:1038800003231A48069404A9CDE9042300F016FF87
:10389000022203231648069404A9CDE9042300F06C
:1038A0000DFF144B33604FF480604FF400614FF410
:1038B00000524FF4807330613046C6E90244C6E9D5
:1038C0000844C6E905127460F36100F02FFD18B9D1
:1038D000AE63B5630AB070BDFFF7B6FEF8E700BF90
:1038E0000020014024750020000802400000024032
:1038F000000402401064024030B50168184A89B0E3
:1039000000239142CDE90233CDE90433069301D07F
:1039100009B030BD02F584320093516C114841F476
:1039200080515164516C01F48051009100990193D0
:10393000136B43F001031363136B03F00103019353
:103940000523019A06930022032302A9E0240225FD
:10395000CDE90245CDE9042300F0B0FE09B030BD49
:1039600000300140000002401B4A0368934284B0CB
:1039700016D0B3F1804F04D0184A93421ED004B041
:10398000704703F50E33002202921A6C42F00102D6
:103990001A641B6C03F001030293029B04B070478E
:1039A0000F4B002201925A6C42F001025A645B6C88
:1039B00003F001030193019B04B07047084B002200
:1039C00003921A6C42F002021A641B6C03F00203A9
:1039D0000393039B04B070470000014000040040C3
:1039E000003802400A4B02689A4200D0704782B009
:1039F00003F50B33002201921A6C42F008021A649C
:103A00001B6C03F008030193019B02B0704700BFD9
:103A1000000C004070B5026839498AB000238A4220
:103A2000CDE90433CDE90633089307D0B2F1804FD6
:103A300020D034498A4250D00AB070BD324A009337
:103A4000136B324843F001031363136B03F001035C
:103A50000093009A04A94FF4E0640225012308931F
:103A600000220023CDE90445CDE9062300F026FE1F
:103A70000AB070BD02F50E320193116B234841F07C
:103A800001011163116B01F0010101910199029390
:103A9000136B43F002031363136B03F002030293EF
:103AA000029948F20202022300240025012604A9FB
:103AB000CDE90423CDE90645089600F0FFFD4FF45B
:103AC000806202231248089604A9CDE90645CDE993
:103AD000042300F0F3FD0AB070BD0B4A0393136B8F
:103AE0000C4843F004031363136B03F004030393C4
:103AF000039A04A94FF4E07402250223AFE700BF44
:103B00000000014000040040003802400000024074
:103B1000000402400008024030B50168184A89B02C
:103B200000239142CDE90233CDE90433069301D05D
:103B300009B030BD02F5FA320093116C114841F41E
:103B400000311164116C01F400310091009901936E
:103B5000136B43F001031363136B03F00103019331
:103B60000723019A06930022032302A904241225A5
:103B7000CDE90245CDE9042300F0A0FD09B030BD38
:103B80000044004000000240FEE700BFFEE700BF27
:103B9000FEE700BFFEE700BFFEE700BF704700BFC3
:103BA000704700BF704700BF00F0E2B84FF400500C
:103BB00000F07CBE014800F091BC00BF24750020DD
:103BC0000120704708B502F0FDFB162303604FF09B
:103BD000FF3008BD08B502F0F5FB16230360FEE7D1
:103BE00070B5161E07DD0C468D19AFF3008004F882
:103BF000010BA542F9D1304670BD00BF70B5161E4D
:103C000007DD0C468D1914F8010BAFF30080AC42B0
:103C1000F9D1304670BD00BF4FF0FF30704700BF94
:103C20004FF400534B600020704700BF01207047E5
:103C3000002070470C490D4A0B6810B50C4C121B44
:103C40002BB11844904207D80860184610BD094BA4
:103C50000B6018449042F7D902F0B4FB0C230360C8
:103C60004FF0FF33184610BD1422002000800120C1
:103C70000004000060780020034AD2F8883043F442
:103C80007003C2F88830704700ED00E008B500F01E
:103C90007BF84FF47A7303FB00F008BD00F074B8B2
:103CA000DFF834D00D480E490E4A002302E0D45804
:103CB000C4500433C4188C42F9D30B4A0B4C002374
:103CC00001E013600432A242FBD3FFF7D5FF02F0FC
:103CD0007FFBFEF78DFF7047008001200000002071
:103CE000E821002008B20008E821002060780020C8
:103CF000FEE7000038B50E4A0E4B12781B680546E9
:103D00004FF47A70B0FBF2F0B3FBF0F000F0F4FA8D
:103D100008B90F2D01D9012038BD044602462946B5
:103D20004FF0FF3000F0A2FA034B20461D6038BD73
:103D30000C200020082000201020002008B50B4B8C
:103D40001A6842F400721A601A6842F480621A60BB
:103D50001A6842F480721A60032000F073FA00209F
:103D6000FFF7C8FFFFF72AFD002008BD003C024016
:103D7000034A044B11681B780B441360704700BF63
:103D80004C7800200C200020014B1868704700BFC1
:103D90004C78002038B50446FFF7F6FF631C054653
:103DA00002D0044B1B781C44FFF7EEFF431BA342D9
:103DB000FAD338BD0C200020002800F0A080F8B510
:103DC000056C04463DB1236CDB060CD5002384F85A
:103DD0003C300120F8BDFFF70FFD6564236C84F8CB
:103DE0003C50DB06F2D4226C48492368484D22F44B
:103DF000885222F0020242F0020222644A6822F44F
:103E000040324A604A68606802434A6058682169E3
:103E1000A768E66820F4807058605A6842EA012278
:103E20005A60586820F0407058605968A06A394359
:103E30005960996821F4006199609A68A84242EA41
:103E400006029A6052D09968E56A21F07061996023
:103E50009A6810439860996821F0405199609A6877
:103E60002A439A609A6822F002029A609A68217E38
:103E700042EA41029A6094F82020002A41D05A6810
:103E8000616A42F400625A605A6822F460425A60E1
:103E90005A68013942EA41325A60DA6AE069656972
:103EA00022F47002DA62D96A013841EA0051D9621B
:103EB000996821F400719960996894F8302041EA7A
:103EC00042219960996821F4806199609A68002084
:103ED00042EA85229A606064236C23F0030343F076
:103EE00001032364002384F83C30F8BD9A6822F073
:103EF00070629A609A6822F040529A60B2E701209C
:103F000070475A6822F400625A60C6E700230140F5
:103F10000100000FF0B5054690F83C0083B0002486
:103F20000128019400F0888001232E6885F83C3038
:103F3000B368DC0714D4424B424C1868B368A4FB46
:103F40000040800C43F0010300EB4000B36001909F
:103F5000019B2BB1019C013C019401980028F9D1EF
:103F6000B368D80503D5B36823F48073B360B06831
:103F70002B6C10F0010043D023F4E06323F0010325
:103F800043F480732B6473685B0505D52B6C23F4B5
:103F9000405343F480532B642B6CA86BDFF8B8C0FC
:103FA000294F13F480531CBF6B6C23F006036B6422
:103FB000264B002485F83C40C0E90FC36FF0220374
:103FC000C7643360736843F080637360B76847F415
:103FD00080771346B7600A4606F14C0100F040FABC
:103FE0001B4B5A6812F01F0213D12968886810F021
:103FF000405015D18B6843F080438B6003B0F0BD17
:1040000043F010032B646B6C43F001036B6403B04B
:10401000F0BD2B680F4A934205D0204603B0F0BD97
:10402000104603B0F0BD986810F04050F5D19A6882
:1040300042F080429A60EAE7022003B0F0BD00BF80
:104040000820002083DE1B43714000086140000807
:10405000002301400020014089400008704700BF54
:1040600008B5806BFFF7FAFF08BD00BF704700BFBF
:10407000806B08B540230364436C43F0040343643E
:10408000FFF7F4FF08BD00BF836B1A6C12F0500FEE
:1040900010B51A6C23D142F4007219681A648A6848
:1040A00012F0405F17D11A7EAAB9CA6A12F4700FD3
:1040B00002D08A6850050ED44A6822F020024A6075
:1040C0001A6C22F480721A641A6CD10403D41A6C2C
:1040D00042F001021A641846FFF7B0FA10BDD2068A
:1040E00004D49B6BBDE81040DB6C18471846FFF703
:1040F000BDFF10BDF0B490F83C3082B00022012B1F
:10410000019200F09480012380F83C300D68092D65
:1041100029D804688B68226905EB45070726BE404D
:1041200022EA060222612269BB40134323614B68E5
:10413000062B2E462CD803EB8303626B053B1F2115
:10414000994022EA01026263626B06FA03F31343A9
:104150006363394B9C422FD0002380F83C301846D3
:1041600002B0F0BC704704688B68E768AEB206EB3B
:1041700046021E3A4FF0070C0CFA02FC27EA0C0725
:10418000E760E76893403B43E3604B68062BD2D976
:104190000C2B37D803EB8303A3F123011F22236BDE
:1041A0008A4023EA02032363236B06FA01F11943D1
:1041B000214B21639C42CFD1122D32D0A5F11003A7
:1041C000012BC9D81D4A5368102D43F400035360D6
:1041D000C2D11B4B02F146721B6802F52E3202F26D
:1041E0008332A2FB03239B0C03EB83035B0001934D
:1041F000019B002BB0D0019B013B0193019B002B45
:10420000F9D1A9E703EB8302413AE36A1F21914008
:1042100023EA0103E362E36A06FA02F11943E16269
:1042200097E7064A536843F48003536094E70220FB
:1042300002B0F0BC704700BF0020014000230140E5
:10424000082000200849CA6810B400024FF6FF0495
:10425000224000F4E063134343F0BF6343F40033B0
:104260005DF8044BCB60704700ED00E0194BDB6854
:10427000C3F3022330B4C3F10705042D03F1040492
:1042800028BF0425062C19D9033B4FF0FF349C406E
:1042900022EA04024FF0FF34AC4021EA04019940C5
:1042A000002841EA02010CDB00F1604000F56140AA
:1042B0000901C9B280F8001330BC704700221346D0
:1042C000E8E7054B00F00F0009010344C9B2197675
:1042D00030BC704700ED00E0FCEC00E0002807DB9C
:1042E00000F01F01034A400901238B4042F82030AF
:1042F000704700BF00E100E00138B0F1807F0ED2CE
:10430000084B10B4084C5860F02084F823000022B9
:10431000072110469A605DF8044B19607047012030
:10432000704700BF10E000E000ED00E0F8B5044683
:10433000FFF72AFD002C54D023680022022184F8C4
:10434000351084F834201A6822F0010205461A60FC
:1043500005E0FFF719FD431B052B3BD823681A68BE
:10436000D107F6D4D4E90126D4E903503243616978
:104370001F682A43D4E9066502430A43206A354987
:1043800032432A430243606A3940042841EA020169
:1043900029D019605A6922F007021043DAB22E4977
:1043A0005861103AA1FB020109092C4823F47F73DC
:1043B000415CE16523F003035F2A88BF04333F2299
:1043C0008A4001250021A3659A60616584F8355013
:1043D0000846F8BD03232022626584F8353018466C
:1043E000F8BD0120F8BDD4E90B5028430143A26A6F
:1043F0001960586920F00700104340F00400002DB8
:10440000CCD07EB1B6F5005F12D0022A03D9032AC0
:10441000C4D1EA01C2D501234022626584F8353057
:104420001846F8BD012A11D032F00202B6D1F0E7E9
:10443000032AB3D801A151F822F000BF17440008A5
:1044400013440008174400084D440008B5F1C07F2C
:10445000A4D1E0E73F8010F0ABAAAAAA24AC0008E0
:10446000F0B490F83440866D012C34D090F835408B
:104470000125AC4280F8345005D0002380F8343058
:10448000F0BC0220704704680227002580F83570D0
:1044900045652568876825F48025402F2560636081
:1044A0000ABFA260A160E160C16D18BFE2603F2356
:1044B0008B40026CB360236843F0160323601AB18B
:1044C000236843F008032360236843F0010323605B
:1044D0000020F0BC70470220F0BC70472DE9F0418D
:1044E00082B00023866D0193C36D34687149082240
:1044F0009A4022420D68804604D001680F68780710
:1045000000F18A8001229A40224204D0D8F800109B
:104510004969090678D404229A40224204D0D8F886
:10452000001009688F0767D410229A40224204D0F5
:10453000D8F800100F68380749D420229A40224248
:1045400017D0D8F800100C68E00612D5B26098F8C1
:104550003520052A73D00B6813F4802F0B6800F008
:104560009080190340F19B80D8F83C300BB1404655
:104570009847D8F854303BB3D8F85430DA071BD5F5
:10458000D8F800204C49052388F835301368A1FB82
:10459000051523F001031360AD0A02E01368DB0781
:1045A00004D5019B0133AB420193F7D901220023CB
:1045B00088F8352088F83430D8F84C3023B140469C
:1045C00002B0BDE8F041184702B0BDE8F081B2602A
:1045D0000A6812F4802F0A682AD1D70503D40A6822
:1045E00022F008020A60D8F84020002AA5D04046F0
:1045F0009047D8F85C30A0E7B260D8F8542042F079
:104600000402C8F854208FE7B260D8F8542042F072
:104610000202C8F854207EE70F6827F004070F60F5
:10462000B260D8F8542042F00102C8F8542069E77B
:104630001203D8D5D8F84820002AD8D17DE70A68D7
:10464000D8F8404022F016020A604A6922F080023F
:104650004A6154B30A6822F008020A603F22D8F87F
:10466000501002FA03F301240022B36088F83540A9
:1046700088F834200029A7D0404602B0BDE8F041B8
:10468000084713F480737FF46FAF0A68012422F0A7
:1046900010020A6088F8343088F8354064E7D8F8AA
:1046A0004430002B7FF463AF63E7D8F84820002A3A
:1046B000D0D1D3E708200020B5814E1B2DE9F04F63
:1046C0008B46DFF8CCC1096885B000234FF0010AA2
:1046D000D94602E00133102B79D00AFA03F202EA3C
:1046E000010B8A43F6D1D9F8045005F00302541E99
:1046F000012C4FEA43076DD9032A40F0AB80BA4042
:10470000D44300940768009C3C40224315F4403F8A
:104710000260DFD0594C00220392626C42F4804266
:104720006264626C23F0030606F1804602F4804264
:1047300006F59C36039203F00304039AB768A400BD
:104740000F22A24027EA02024D4FB84214D007F5CB
:104750008067B84200F083804A4FB84200F08380FF
:10476000494FB84200F08480484FB8420CBF04273C
:10477000072707FA04F42243B260DCF800206FEA4E
:104780000B06EC0354BF32404BEA0202CCF8002087
:10479000DCF80440AA0354BF34404BEA0404CCF8CC
:1047A0000440DCF80840EF0254BF34404BEA0404F4
:1047B000CCF80840DCF80C20AC0203F1010354BF34
:1047C00032404BEA0202102BCCF80C2085D105B008
:1047D000BDE8F08F86680324BC4026EA040ED9F8B1
:1047E0000C60BE4046EA0E068660D0F804E0C5F3D1
:1047F00000162EEA0B0E9E4046EA0E06E443009495
:104800004660C66806EA040ED9F80860BE4046EA6B
:104810000E06022AC66001D0BA4073E74FEAD308F9
:1048200000EB880803F0070ED8F8204001944FEA07
:104830008E0E0F2404FA0EF6019C24EA0606D9F81F
:104840001040019604FA0EF6019C2643BA40C8F8BF
:10485000206057E70324BC40E4430094D1E70AFA00
:1048600004F4224388E7022707FA04F4224383E78B
:10487000032707FA04F422437EE700BF0038024012
:104880000000024000080240000C024000100240FC
:10489000003C01400369194214BF01200020704709
:1048A00002B9090481617047704700BF044A516929
:1048B000014200D1704708B55061FFF7F5FF08BD10
:1048C000003C0140002800F0A5812DE9F04103687B
:1048D000DD0782B004462FD5AC498A6802F00C028D
:1048E000042A00F0EC808A6802F00C02082A00F02A
:1048F000E2806368B3F5803F00F0EB80B3F5A02F52
:1049000000F07881A14D2A6822F480322A602A685A
:1049100022F480222A60002B40F0E080FFF734FA76
:10492000064605E0FFF730FA801B642800F200819C
:104930002B689B03F6D423689F0728D5934A916878
:1049400011F00C0F00F09080916801F00C01082923
:1049500000F08680E368002B00F006818C4B8B4EC4
:1049600001221A60FFF710FA054605E0FFF70CFA7E
:10497000401B022800F2DC8033689807F6D53368C4
:10498000226923F0F80343EAC203336023681A075D
:1049900052D458072FD57D4A136C13F080537ED024
:1049A00000257C4E3368D90540F1B280A368012B05
:1049B00000F0C280052B00F02F81744E326F22F080
:1049C00001023267326F22F004023267002B40F09E
:1049D000B880FFF7D9F941F28838074605E0FFF7BC
:1049E000D3F9C01B404500F2A380336F9807F6D47B
:1049F000002D40F00981A069D0B1644DAB6803F08F
:104A00000C03082B00F0CC80634B002202281A60B4
:104A100000F00C81FFF7B8F92C46054605E0FFF7DA
:104A2000B3F9401B022800F2838023689B01F6D46F
:104A3000002002B0BDE8F081636903B3574B534EC9
:104A400001221A60FFF7A0F9054604E0FFF79CF980
:104A5000401B02286CD8736F9B07F7D5236898E733
:104A6000526856023FF576AF484A1268950743D51B
:104A7000E268012A40D0012002B0BDE8F081474A37
:104A8000424E1360FFF780F9054604E0FFF77CF91A
:104A9000401B02284CD8736F9F07F7D4DEE70193C1
:104AA000136C43F080531364136C03F08053019331
:104AB000019B012575E74A6850027FF51AAF334A1A
:104AC000126891037FF538AF6268002A7FF434AF33
:104AD000D1E72E4A136843F480331360FFF754F98B
:104AE0002A4E054604E0FFF74FF9401B64281FD803
:104AF00033689A03F7D51EE7244920690A6822F033
:104B0000F80242EAC0020A601A077FF542AF93E753
:104B1000336843F480733360FFF736F90746336830
:104B2000DA053FF543AFFFF72FF9C01B0228F6D98E
:104B3000032002B0BDE8F081144A136F43F0010373
:104B40001367FFF721F9114F064641F2883804E058
:104B5000FFF71AF9801B4045EAD83B6F9B07F7D552
:104B6000002D3FF448AF4FE0094A084E1360FFF7AD
:104B70000BF9054604E0FFF707F9401B0228D7D8D8
:104B800033689907F7D4236801E700BF0038024073
:104B9000000047420070004060004742800E4742DC
:104BA00001283FF446AF6B68E26903F4800191424B
:104BB0007FF461AF226A03F03F0191427FF45BAF63
:104BC000616A47F6C0721A40B2EB811F7FF453AF9F
:104BD000A26A5208013A03F44031B1EB024F7FF46C
:104BE0004AAFE26A03F07063B3EB026F14BF0120B7
:104BF00000201EE7244B1A6842F480221A601A68CB
:104C000042F480321A6069E71F4A136C23F0805324
:104C10001364F0E6012070471B4B1A6F42F0040248
:104C20001A671A6F42F001021A678AE7FFF7ACF8B9
:104C3000064605E0FFF7A8F8801B02283FF678AF8C
:104C40002B689901F6D4D4E90736D4E90902E16A60
:104C5000334343EA8013520843EA0163013A0B49A4
:104C6000094E43EA024301226B600A60FFF78CF8A9
:104C7000044605E0FFF788F8001B02283FF658AF0E
:104C800033689A01F6D5D3E6003802406000474207
:104C9000174908B58B6803F00C03042B1BD0082BB5
:104CA00017D14A684B6813F4800302F03F0214D115
:104CB00049681048C1F38811A1FB0001FBF7CCFF44
:104CC0000B4B5B68C3F3014301335B00B0FBF3F0B4
:104CD00008BD084808BD084808BD4B680648C3F32E
:104CE0008813A3FB00010023FBF7B6FFE8E700BF32
:104CF000003802400024F40000127A00002800F07E
:104D00008780484A136803F007038B422DE9F0417E
:104D10000D46044609D2CBB21370136803F00703A3
:104D20008B4202D00120BDE8F0812368980714D59A
:104D3000590704D53C498A6842F4E0528A601A0750
:104D400004D539498A6842F460428A603649A068CD
:104D50008A6822F0F00202438A60DF0721D5626888
:104D6000012A57D0931E012B2F4B1B684DD9990751
:104D7000D8D52D4EB36823F003031343B360FFF778
:104D800003F841F28838074604E0FEF7FDFFC01B38
:104D9000404544D8B368626803F00C03B3EB820F5C
:104DA000F3D1204A136803F00703AB4206D9EBB2F4
:104DB0001370136803F00703AB42B3D123685A079B
:104DC00006D51949E0688A6822F4E05202438A60F5
:104DD0001B0707D5144A2169936823F4604343EA0B
:104DE000C1039360FFF754FF0F4A104C92681049BB
:104DF000C2F303120346A25C0E48D34000680B6066
:104E0000FEF778FF0020BDE8F0819801B1D489E772
:104E100001207047044B1B689E03AAD482E703203D
:104E200081E700BF003C0240003802400CAC0008A3
:104E30000820002010200020044B054A9B680549EB
:104E4000C3F382230868D35CD8407047003802401F
:104E50001CAC000808200020044B054A9B6805494B
:104E6000C3F342330868D35CD8407047003802402F
:104E70001CAC0008082000202DE9F04182B09846C3
:104E800016460C460746FEF77FFFB044A8EB000528
:104E9000FEF77AFF274B1B68C3F3CB3305FB03F305
:104EA00080460193731C396807D18B6834EA030389
:104EB000FBD0002002B0BDE8F0818B6834EA030328
:104EC000F7D1FEF761FFA0EB0803AB4208D2019ACD
:104ED000019B002A03F1FF3308BF00250193E1E79E
:104EE000D7E900315A68B1F5827F22F0E0025A60BA
:104EF00014D0BA6AB2F5005F07D00122002387F808
:104F0000512087F850300320D4E71A6822F4005269
:104F10001A601A6842F400521A60EEE7BA68B2F5F5
:104F2000004F02D0B2F5806FE3D11A6822F0400240
:104F30001A60DEE70820002000285BD0F8B5476A39
:104F40000446002F46D00023C0E9043394F85120D2
:104F5000002002F0FF01A062002A41D0D4E901350F
:104F6000E168A66903F4827205F4044523692A43C3
:104F700001F400610A4303F0020163690A4303F08C
:104F800001031A43E369216803F0380E06F4007345
:104F90001343022284F85120226A350C43EA0E039F
:104FA00002F0800605F004020D6807F01007334395
:104FB0003A43034325F040050D600B604A60CB691E
:104FC000002223F400630125CB61626584F851500F
:104FD0001046F8BD4368B3F5827FB7D0C761B5E727
:104FE000204684F85010FEF787FCD4E9097303F4D7
:104FF0000050B3E7012070472DE9F041044690F8D6
:105000005000012882B000F086801D46012384F8FC
:10501000503088461746FEF7B7FE94F85130012B02
:105020000646D8B209D002200122002384F851207C
:1050300084F8503002B0BDE8F081B8F1000FF3D031
:10504000002FF1D0A2682068C4F83080032384F8D0
:105050005130B2F5004F4FF000036365C4E91033DF
:10506000E786A786A363A387E38700F085800268AD
:105070005206034603D4026842F040020260E2682E
:10508000B2F5006F4BD06368002B00F09780012FC2
:1050900000F09480E38E9BB2ABB1681C40F083803B
:1050A00023689A68910740F19480226B12781A73F2
:1050B000E28E236B013A92B2E286E28E013392B223
:1050C0002363002AECD161685B4B5C4A1B68A2FB3E
:1050D00003235B0D4FF47A7202FB03F3B1F5827F79
:1050E000019307D198E0019B2268013B01939368EB
:1050F0001B0602D5019B002BF5D1A36833B92268AA
:105100000093D368009393680093009B606D003810
:1051100018BF012088E7022002B0BDE8F081616875
:10512000002976D1474637F8022BC260E28E27630A
:10513000013A92B2E286E28E92B2002AC4D06A1C90
:105140005ED183689F070FD5226B32F8023BC360A4
:10515000E38E2263013B9BB2E386E38E9BB2002B7E
:10516000B1D083689F07EFD4FEF70EFEE38E9BB2AB
:10517000002BA8D02068E4E7036823F04003036015
:10518000036843F48043036071E7226B12781A735B
:10519000E38E226B013B9BB20132E3862263E38EF6
:1051A0009BB2002B8FD023689A689207EDD4FEF74C
:1051B000EBFD801BA842F2D3032035E798F80030BE
:1051C0000373E38E226B013B9BB20132E3862263C1
:1051D00060E7FEF7D9FDE38E9BB2002B7FF460AF52
:1051E00071E7226B32F8021BD960E38E2263013B28
:1051F0009BB2E386E38E9BB2002B3FF464AF23683F
:105200009A689107EDD4FEF7BFFD801BA842F1D349
:10521000D2E7012F8FD185E733462A4680212046E9
:10522000FFF72AFE00283FF468AF636D2022134386
:105230006365626561E700BF08200020819F5E16FC
:105240002DE9F043044690F85000012883B000F0A7
:10525000A4801F46012384F8503091468846FEF70B
:1052600093FD94F851606368012E0546F2B211D0A7
:10527000B3F5827F09D002200122002384F8512057
:1052800084F8503003B0BDE8F083A1680029F2D162
:10529000042AF0D1B8F1000F00F08380B9F1000FBB
:1052A0007FD0002F7DD094F851202068C4F838902A
:1052B000042A1CBF052284F8512000226265E7877A
:1052C000E7860168A787C4E910224A06C4F830803F
:1052D000A78603D4026842F040020260E268B2F599
:1052E000006F00F0AC80002B00F09E80012F00F0DA
:1052F0009B800A9B01334FF0010628D053E02268BF
:10530000936898070FD5E38E9BB263B15EB1236BB0
:105310001B781373E38E216B2268013B9BB2013132
:10532000E38621630026936813F001030DD0E18F1B
:1053300089B251B1A16BD2680A70E28FA16B013AB8
:1053400092B201311E46E287A163FEF71DFDE38E96
:105350009BB2002BD3D1E38F9BB2002BCFD1794BE3
:10536000794A1B686168A2FB03235B0D4FF47A72D4
:1053700002FB03F3B1F5827F019346D10A9A2B46D3
:1053800080212046FFF778FD002841D0636D202260
:1053900013436365012062656EE7022003B0BDE838
:1053A000F083012068E7E38E9BB21BB9E38F9BB2C9
:1053B000002BD4D02268936899070FD5E38E9BB257
:1053C00063B15EB1236B1B781373E38E216B22688C
:1053D000013B9BB20131E38621630026936813F001
:1053E000010303D0E18F89B2002967D1FEF7CCFC1D
:1053F0000A9B401B9842D6D303203DE7019B2268BD
:10540000013B019393681B0602D5019B002BF5D14C
:10541000A068002840F0938023680090DA6800922A
:105420009B680093009B27E798F800300373E38E96
:10543000226B013B9BB20132E386226359E7002BCA
:1054400048D1414631F8023BC360E38E2163013B02
:105450009BB2E3860A9B01334FF0010625D03CE066
:10546000226893689B070DD5E38E9BB253B14EB172
:10547000216B31F8023BD360E38E2163013B9BB289
:10548000E3860026936813F001030CD0E18F89B204
:1054900049B1A16BD26821F8022BE28FA163013AD6
:1054A00092B21E46E287FEF76FFCE38E9BB2002BA2
:1054B000D6D1E38F9BB2002BD2D150E7A16BD2683B
:1054C0000A70E28FA16B013A92B201311E46E28767
:1054D000A1638BE7012FBDD1B3E7E38E9BB223B964
:1054E000E38F9BB2002B3FF43AAF226893689F078B
:1054F0000DD5E38E9BB253B14EB1216B31F8023B17
:10550000D360E38E2163013B9BB2E3860026936860
:1055100013F001030CD0E18F89B249B1A16BD268BD
:1055200021F8022BE28FA163013A92B21E46E28774
:10553000FEF72AFC0A9B401B9842CED35CE7002072
:105540009AE600BF08200020819F5E162DE9F043F7
:105550004668B6F5827F83B0044691461D4688466C
:105560006DD094F85030012B75D0012384F8503061
:10557000FEF70AFC94F85170012F0646F8B209D0E4
:1055800002200122002384F8512084F8503003B017
:10559000BDE8F083B8F1000FF3D0B9F1000FF0D0FF
:1055A000A2682168C4F83880042384F85130B2F529
:1055B000004F4FF000036365C4E91033A4F83E9038
:1055C000A4F83C902363A386E38607D10B6823F0FD
:1055D00040030B600B6823F480430B600A6850069D
:1055E0000B4603D40A6842F040020A60E268002ACF
:1055F00055D0E28F92B28AB16A1C3ED18B68DB072C
:1056000045D5A36BCA6823F8022BE28FA363013A46
:1056100092B2E287E38F9BB2002BEFD16368B3F5C0
:10562000827F74D033462A4601212046FFF724FCAE
:1056300000287BD1606D003818BF0120A1E7836886
:10564000002B8ED104260095134680F851600A463F
:10565000FFF7F6FD9BE7022003B0BDE8F083A26BE5
:10566000DB6822F8023BE38FA263013B9BB2E38736
:10567000E38F9BB2002BD1D023689A68D207EED477
:10568000FEF782FB801BA842F2D3032079E7FEF7E6
:105690007BFBE38F9BB2002BC0D02168AEE7E28F8B
:1056A00092B2002ABAD06F1C0FD027E0A26B1B7BEE
:1056B0001370E28FA16B013A92B2E287E38F01315E
:1056C0009BB2A163002BA9D023689A68D007EDD4C0
:1056D000FEF75AFBE38F9BB2002BF5D19EE7A26B3E
:1056E0001B7B1370E38FA26B013B9BB20132E387FC
:1056F000A263E38F9BB2002B90D023689A68D107F6
:10570000EDD4FEF741FB801BA842F2D3BDE7A368AE
:10571000B3F5004F20D0B3F5806F0ED033462A4644
:1057200080212046FFF7A8FB002883D0636D43F05B
:1057300020036365202363657CE72068016821F00E
:105740004001016033462A4601212046FFF794FBC1
:1057500000283FF46FAFE9E72268136823F04003A5
:105760001360DBE790F85100704700BF002876D047
:1057700038B590F83D30044603F0FF02002B55D0B9
:1057800022683849022384F83D308A42136852D097
:10579000B2F1804F21D0A1F57C418A421DD001F5A4
:1057A00080618A4219D001F580618A4215D001F5E5
:1057B0009A318A4215D001F580618A4211D001F5F3
:1057C00080618A420DD0A569E068616823F080039A
:1057D0002B431360D062916210E0A16823F0700344
:1057E0000B432569A169E06823F440732B4323F040
:1057F00080030B4361681360D0629162012353619F
:1058000084F8463084F83E3084F83F3084F84030E5
:1058100084F8413084F8423084F8433084F84430CE
:1058200084F8453084F83D30002038BD80F83C20B5
:10583000FEF79AF8A4E7A5682069A16923F0700330
:105840002B4323F44073034323F080030B43136083
:10585000E368D3626368936263691363CEE70120F0
:10586000704700BF00000140002876D038B590F89E
:105870003D30044603F0FF02002B55D02268384922
:10588000022384F83D308A42136852D0B2F1804F2F
:1058900021D0A1F57C418A421DD001F580618A4268
:1058A00019D001F580618A4215D001F59A318A42FA
:1058B00015D001F580618A4211D001F580618A42DC
:1058C0000DD0A569E068616823F080032B43136065
:1058D000D062916210E0A16823F070030B43256948
:1058E000A169E06823F440732B4323F080030B434A
:1058F00061681360D06291620123536184F846307D
:1059000084F83E3084F83F3084F8403084F84130E9
:1059100084F8423084F8433084F8443084F84530C9
:1059200084F83D30002038BD80F83C20FEF75AF85E
:10593000A4E7A5682069A16923F070032B4323F431
:105940004073034323F080030B431360E368D36287
:105950006368936263691363CEE70120704700BFF9
:1059600000000140704700BF002876D038B590F89D
:105970003D30044603F0FF02002B55D02268384921
:10598000022384F83D308A42136852D0B2F1804F2E
:1059900021D0A1F57C418A421DD001F580618A4267
:1059A00019D001F580618A4215D001F59A318A42F9
:1059B00015D001F580618A4211D001F580618A42DB
:1059C0000DD0A569E068616823F080032B43136064
:1059D000D062916210E0A16823F070030B43256947
:1059E000A169E06823F440732B4323F080030B4349
:1059F00061681360D06291620123536184F846307C
:105A000084F83E3084F83F3084F8403084F84130E8
:105A100084F8423084F8433084F8443084F84530C8
:105A200084F83D30002038BD80F83C20FFF79AFF15
:105A3000A4E7A5682069A16923F070032B4323F430
:105A40004073034323F080030B431360E368D36286
:105A50006368936263691363CEE70120704700BFF8
:105A600000000140002936D190F83E30012B3AD198
:105A7000022380F83E3003680122186A01F01F01FA
:105A800002FA01F120EA010010B418621A6A274CE8
:105A90001143A34219622CD0B3F1804F0ED0244A97
:105AA00093420BD002F58062934207D002F58062E8
:105AB000934203D002F59A32934204D19A6802F0DD
:105AC0000702062A1ED01A685DF8044B42F0010254
:105AD00000201A607047042918D008291ED090F8B9
